:107000000C945D380C94A8380C947A380C947A3827
:107010000C947A380C947A380C947A380C947A3828
:107020000C947A380C947A380C947A380C947A3818
:107030000C947A380C947A380C947A380C947A3808
:107040000C947A380C947A380C947A380C947A38F8
:107050000C947A380C947A380C947A380C947A38E8
:107060000C947A380C947A38040309041C037700D2
:10707000770077002E0066006900730063006800E7
:107080006C002E00640065000E03550053004200A2
:1070900061007300700012011001FF000008C016AB
:1070A000DC05020101020001090212000101008059
:1070B000FA09040000000000000011241FBECFEFF9
:1070C000D8E0DEBFCDBF11E0A0E0B1E0E0E1FBE73A
:1070D00002C005900D92A630B107D9F711E0A6E0E5
:1070E000B1E001C01D92AF33B107E1F70E94DB3A76
:1070F0000C94863D0C940038A82FB92F80E090E0C6
:1071000041E050EA609530E009C02D9182279795C3
:10711000879510F084279527305EC8F36F5FA8F33A
:107120000895EADF8D939D930895A6E08827992717
:10713000AA9569F00197E1F34B99FCCF4B9BFECFE9
:1071400081E09927A9B1019611F0AC70D9F70895A3
:10715000CF93CFB7CF93C3954B9BE9F74B9B09C018
:107160004B9B07C04B9B05C04B9B03C04B9B01C077
:1071700041C1DF93C0912201DD27C75DDE4F4B9BEC
:1071800002C0DF91EBCF2F930F931F9320E84B9911
:1071900021604F933F930F924B9922601FEF3BE08A
:1071A000022F220F00C04B990C602027087049B1B4
:1071B00011F4000037C0B2C043FFC89549B1206840
:1071C000000002274B9B0BC0287F11F049B187C0FC
:1071D00049B11E7F4B9B4A9902C00993E8C043FD09
:1071E000C89549B121604C704B9908C0B1F3217F1B
:1071F00049B109F084C01D7F00C000C043FFC8959D
:1072000049B1226000004B9B08C0237E11F049B1B8
:1072100084C049B11B7F00C000C043FDC89549B17F
:10722000246009934B9908C0277C11F049B184C0B0
:1072300049B1177F00C000C043FFC89549B128601D
:10724000012F4B9B08C02F7811F049B184C049B180
:107250000F7E00C000C043FDC89549B120611FEFFB
:107260004B9908C02F7111F049B184C049B10F7D0D
:1072700000C000C043FFC89549B12062315038F0CA
:107280004B9B08C02F73223049B114F082C08BC0D1
:107290000F7BC89543FDC89549B1206400004B9908
:1072A0008BCF2F77243049B10CF008C00F77000046
:1072B00083CF43FDC89549B12068000002274B9950
:1072C0000AC0287F11F049B18ECF49B11E7F4B9B78
:1072D0004A9901C082CF43FFC89549B12160217FFF
:1072E0004B9B08C019F000C049B18DCF49B11D7F3B
:1072F000C89500C043FDC89549B1226000004B9974
:1073000008C0237E11F049B18CCF49B11B7F00C06A
:1073100000C043FFC89549B1246009934B9B08C046
:10732000277C11F049B18CCF49B1177F00C000C054
:1073300043FDC89549B12860012F4B9908C02F78AB
:1073400011F049B18CCF49B10F7E00C000C043FF9E
:10735000C89549B120611FEF4B9B08C02F7111F0F8
:1073600049B18CCF49B10F7D00C000C043FDC89525
:1073700049B120623150B8F04B9907C02F732230C9
:1073800049B10CF08CCF0F7BC89543FFC89549B12C
:1073900020644B9B8ECF2F77243049B10CF011CF56
:1073A0000F77000086CF11E01CBB002717C03B50B1
:1073B0003195C31BD04011E01CBB0881033CF1F0A8
:1073C0000B34E1F0209120011981110F1213EDCF40
:1073D000093649F10D3211F0013E39F700932701CA
:1073E0000F903F914F911F910F912F91DF91CCB34F
:1073F000C0FDB1CECF91CFBFCF911895209127017D
:10740000222371F310912501112311F5343012F16B
:107410003093250120932101109122013BE0311B83
:107420003093220117C00091250101308CF40AE548
:107430003091000134FD0FC000930001C5E1D1E09F
:107440000EC0279598F4415099F4220F0000F9CF0F
:107450003AE501C032ED032EC0E0D0E032E01AB1CF
:107460001C605B9A1AB90BB120E41CE0012746E0CE
:107470000BB9279520F4415021F4220FF9CF0127B1
:1074800046E000C03B5A0BB9E0F2279528F4415082
:1074900029F4220F0000F9CF012746E027950BB908
:1074A00020F4415021F4220FF9CF012746E0299121
:1074B000000033230BB929F6037F10912601110F29
:1074C000C250D0400BB911F01093200111E01CBB49
:1074D00008601AB1137F402F437FC895C8950BB938
:1074E0001AB94BB97DCF1BB815B81AB814B8F894AF
:1074F0001DBA1092690081E085BF15BEE0911301AD
:10750000F09114010995EF92FF920F931F93CF937F
:10751000DF9380E8F82E09EFC0E0D0E0102F1F0DB8
:10752000109366000E9495389C0187E0233238074B
:107530000CF0102FF6942196C830D10511F0012FD0
:10754000EDCF1150109366001F5F7901C12FD0E07D
:10755000219614C00E9495388352974097FF03C02C
:10756000909581959F4F8E159F051CF41091660094
:107570007C01809166008F5F809366008091660039
:1075800090E0C817D90734F710936600DF91CF91C8
:107590001F910F91FF90EF9008950E94833A6091A0
:1075A00066008FEF93E00E94783D8EEF93E06BE3EF
:1075B0000E94783D08952F923F924F925F926F9272
:1075C0007F928F929F92AF92BF92CF92DF92EF9273
:1075D000FF920F931F93CF93DF9388E10FB6F89438
:1075E00080936000109260000FBE80E8809361007D
:1075F000109261008EEF93E00E94703D8B3331F466
:107600008FEF93E00E94703D809366005B9A04B612
:1076100001FE64C214BE81E085BF82E085BF54983C
:107620005C9884EC99E020E431E0F9013197F1F7BE
:107630000197D9F780EC9DE59093070180930601AF
:1076400080916900836080936900E89A4B9BFECF2C
:10765000549A5C9A7894209A289ADD24CC24C39476
:1076600058E8652E50E7752E4CE6442E40E7542E20
:1076700038E6232E30E7332E26E9A22E20E7B22E5D
:1076800098E0892E91E0992E90912501935097FDD5
:107690005FC1809122010CE010E0081B1109075D19
:1076A0001E4F809121018D3209F0DBC0983009F026
:1076B0004DC123EC209315013AE53093000110925F
:1076C0000D01D8013C91832F807611962C91119752
:1076D000882309F455C0909224018092230123301D
:1076E00009F513969C91139714968C911497129602
:1076F0002C91203339F48370E82FF0E0EE5FFE4FD9
:1077000080810CC0203A19F40E94703D07C0203CD3
:1077100021F4F80165810E94783D80E080930B019F
:1077200024E08DC0253011F421E089C0822F8450DF
:107730008630E0F4D80112968D919C911397909326
:107740000F0180930E01293009F478C016969C91A0
:1077500016979093100115968C9182708093110169
:107760002093120137FD70C09FEF6EC0223009F0E8
:1077700065C084E690E090930701809306015EC0A7
:10778000F801828110921E01222321F410921F0120
:1077900022E04DC0253019F48093260147C02630E1
:1077A000B1F5D80113968C91813029F4B09224015F
:1077B000A092230108C0823041F4E8EAF0E7F09398
:1077C0002401E093230122E11EC08330D9F4D801C3
:1077D00012968C91882331F4309224012092230157
:1077E00024E011C0813031F45092240140922301F1
:1077F0002CE109C0823031F470922401609223019F
:107800002EE001C020E0B0E4B0930D0118C0283094
:1078100021F421E088E291E00CC0293019F4809332
:10782000280104C02A3011F421E001C020E08EE1DB
:1078300091E0909324018093230101C020E0F8019E
:107840008781882329F009C080E880930D0106C054
:10785000D80116969C91921708F0922F90930101EF
:1078600075C080910D0187FF71C080911001F92EC4
:10787000891708F4F82E8F1980931001EE248823BD
:1078800011F4EE24E39480911201873010F0E801A6
:1078900015C050911101E0910E01F0910F0140E0EF
:1078A0004AC080910E0190910F01019690930F01B3
:1078B00080930E01019769910E94783DFE01E01BC3
:1078C000EF1578F33FC0CF018F779070892B49F483
:1078D000F89423E020935700E895789407B600FCCD
:1078E000FDCF4E5FF894D8018D919D918D010C01D3
:1078F000C0925700E895112478949F012E5F3F4F66
:10790000C9018F779070892B31F0EE2099F04F15D7
:1079100088F0552379F0F894B5E0B0935700E895D6
:10792000789407B600FCFDCFF894E1E1E0935700AE
:10793000E8957894F9014F1508F4C5CFF0930F013D
:10794000E0930E01EE2011F010920101109225013A
:107950008091000184FF80C0809101018F3F09F474
:107960007BC0182F893008F018E0811B809301013B
:107970008091150198E8892780931501112309F456
:1079800058C080910D0187FF2BC080911001811795
:1079900008F4182F811B80931001C6E1D1E0E12E7D
:1079A000FF24EC0EFD1E18C080911201E0910E0123
:1079B000F0910F01873020F0CF010E94703D01C08F
:1079C00084918883219680910E0190910F010196F8
:1079D00090930F0180930E01CE15DF0529F727C084
:1079E000209123013091240186FF0DC0A6E1B1E072
:1079F00080E090E0F901E80FF91FE491ED93019622
:107A00001817C1F708C0D901912FE6E1F1E08D9177
:107A100081939150E1F71150812F90E01F5F019603
:107A2000820F931F909324018093230102C0193089
:107A300068F486E191E0612F0E949138612F6C5FBC
:107A40006C3041F08FEF8093010104C08FEF809381
:107A500001016EE16093000194E189B18C7031F411
:107A60009150D9F7109226011092200110E099232D
:107A700009F411E080910C01811731F0112311F408
:107A80000E94CD3A10930C01D39409F0FDCD2091C2
:107A900006013091070121503040309307012093B7
:107AA00006012115310579F0C9018F739070892B7A
:107AB00009F0EACD33702150314008F4E5CD85B1AD
:107AC0008C2585B9E1CD54985C9884EC99E020E44C
:107AD00031E0F9013197F1F70197D9F70E94733A34
:107AE000F999FECF92BD81BDF89A992780B5089586
:107AF000262FF999FECF1FBA92BD81BD20BD0FB6CA
:107B0000F894FA9AF99A0FBE01960895F894FFCF67
:067B10005AFF1E950F0054
:040000030000700089
:00000001FF
